{
  "contractName": "HelloWorld",
  "abi": [
    {
      "inputs": [],
      "payable": false,
      "stateMutability": "nonpayable",
      "type": "constructor"
    },
    {
      "anonymous": false,
      "inputs": [
        {
          "indexed": false,
          "name": "value",
          "type": "string"
        }
      ],
      "name": "helloWorldUpdated",
      "type": "event"
    },
    {
      "constant": false,
      "inputs": [
        {
          "name": "_helloWorldText",
          "type": "string"
        }
      ],
      "name": "updateHelloWorld",
      "outputs": [
        {
          "name": "",
          "type": "bool"
        }
      ],
      "payable": false,
      "stateMutability": "nonpayable",
      "type": "function"
    },
    {
      "constant": true,
      "inputs": [],
      "name": "getHelloWorld",
      "outputs": [
        {
          "name": "",
          "type": "string"
        }
      ],
      "payable": false,
      "stateMutability": "view",
      "type": "function"
    }
  ],
  "bytecode": "0x608060405234801561001057600080fd5b506040518060400160405280600b81526020017f48656c6c6f20576f726c640000000000000000000000000000000000000000008152506000908051906020019061005c929190610062565b50610107565b828054600181600116156101000203166002900490600052602060002090601f016020900481019282601f106100a357805160ff19168380011785556100d1565b828001600101855582156100d1579182015b828111156100d05782518255916020019190600101906100b5565b5b5090506100de91906100e2565b5090565b61010491905b808211156101005760008160009055506001016100e8565b5090565b90565b610533806101166000396000f3fe608060405234801561001057600080fd5b5060043610610052576000357c0100000000000000000000000000000000000000000000000000000000900480620e5c8014610057578063a7ef432914610087575b600080fd5b610071600480360361006c919081019061029c565b6100a5565b60405161007e91906103b4565b60405180910390f35b61008f6100ff565b60405161009c91906103cf565b60405180910390f35b600081600090805190602001906100bd9291906101a1565b507f4581b52b3292415799d12a4b62308c3ded759cb3996c5ff7f8b1661c010b989860006040516100ee91906103f1565b60405180910390a160019050919050565b606060008054600181600116156101000203166002900480601f0160208091040260200160405190810160405280929190818152602001828054600181600116156101000203166002900480156101975780601f1061016c57610100808354040283529160200191610197565b820191906000526020600020905b81548152906001019060200180831161017a57829003601f168201915b5050505050905090565b828054600181600116156101000203166002900490600052602060002090601f016020900481019282601f106101e257805160ff1916838001178555610210565b82800160010185558215610210579182015b8281111561020f5782518255916020019190600101906101f4565b5b50905061021d9190610221565b5090565b61024391905b8082111561023f576000816000905550600101610227565b5090565b90565b600082601f830112151561025957600080fd5b813561026c61026782610440565b610413565b9150808252602083016020830185838301111561028857600080fd5b6102938382846104a6565b50505092915050565b6000602082840312156102ae57600080fd5b600082013567ffffffffffffffff8111156102c857600080fd5b6102d484828501610246565b91505092915050565b6102e68161049a565b82525050565b60006102f78261047e565b6103018185610489565b93506103118185602086016104b5565b61031a816104e8565b840191505092915050565b6000815460018116600081146103425760018114610368576103ac565b607f60028304166103538187610489565b955060ff1983168652602086019350506103ac565b600282046103768187610489565b95506103818561046c565b60005b828110156103a357815481890152600182019150602081019050610384565b80880195505050505b505092915050565b60006020820190506103c960008301846102dd565b92915050565b600060208201905081810360008301526103e981846102ec565b905092915050565b6000602082019050818103600083015261040b8184610325565b905092915050565b6000604051905081810181811067ffffffffffffffff8211171561043657600080fd5b8060405250919050565b600067ffffffffffffffff82111561045757600080fd5b601f19601f8301169050602081019050919050565b60008160005260206000209050919050565b600081519050919050565b600082825260208201905092915050565b60008115159050919050565b82818337600083830152505050565b60005b838110156104d35780820151818401526020810190506104b8565b838111156104e2576000848401525b50505050565b6000601f19601f830116905091905056fea265627a7a72305820a564ddefeca8abd44d3a603a7496908845050647d871cbac1663f4ae6358c7e86c6578706572696d656e74616cf50037",
  "source": "pragma solidity ^0.5.0;\npragma experimental ABIEncoderV2;\n\ncontract HelloWorld {\n    string helloWorldText;\n\n    event helloWorldUpdated(string value);\n\n    constructor() public {\n       helloWorldText = \"Hello World\";\n    }\n\n    function updateHelloWorld(string memory _helloWorldText) public returns (bool) {\n        helloWorldText = _helloWorldText;\n\n        emit helloWorldUpdated(helloWorldText);\n        return true;\n    }\n\n    function getHelloWorld() public view returns (string memory) {\n      return helloWorldText;\n    }\n}\n",
  "sourcePath": "/Users/remi/appliedWorkspace/launchpad/contracts/contracts/HelloWorld.sol",
  "compiler": {
    "name": "solc",
    "version": "0.5.5+commit.47a71e8f.Darwin.appleclang"
  },
  "schemaVersion": "3.0.0-beta.2",
  "updatedAt": "2019-03-14T13:57:45.247Z",
  "devdoc": {
    "methods": {}
  },
  "userdoc": {
    "methods": {}
  }
}