{
  "contractName": "HelloWorld",
  "abi": [
    {
      "inputs": [],
      "stateMutability": "nonpayable",
      "type": "constructor"
    },
    {
      "anonymous": false,
      "inputs": [
        {
          "indexed": false,
          "internalType": "string",
          "name": "value",
          "type": "string"
        }
      ],
      "name": "helloWorldUpdated",
      "type": "event"
    },
    {
      "inputs": [
        {
          "internalType": "string",
          "name": "_helloWorldText",
          "type": "string"
        }
      ],
      "name": "updateHelloWorld",
      "outputs": [
        {
          "internalType": "bool",
          "name": "",
          "type": "bool"
        }
      ],
      "stateMutability": "nonpayable",
      "type": "function"
    },
    {
      "inputs": [],
      "name": "getHelloWorld",
      "outputs": [
        {
          "internalType": "string",
          "name": "",
          "type": "string"
        }
      ],
      "stateMutability": "view",
      "type": "function"
    }
  ],
  "bytecode": "0x608060405234801561001057600080fd5b506040518060400160405280600b81526020017f48656c6c6f20576f726c640000000000000000000000000000000000000000008152506000908051906020019061005c929190610062565b50610107565b828054600181600116156101000203166002900490600052602060002090601f016020900481019282601f106100a357805160ff19168380011785556100d1565b828001600101855582156100d1579182015b828111156100d05782518255916020019190600101906100b5565b5b5090506100de91906100e2565b5090565b61010491905b808211156101005760008160009055506001016100e8565b5090565b90565b610513806101166000396000f3fe608060405234801561001057600080fd5b50600436106100355760003560e01c80620e5c801461003a578063a7ef43291461006a575b600080fd5b610054600480360381019061004f919061027d565b610088565b6040516100619190610395565b60405180910390f35b6100726100e2565b60405161007f91906103b0565b60405180910390f35b600081600090805190602001906100a0929190610184565b507f4581b52b3292415799d12a4b62308c3ded759cb3996c5ff7f8b1661c010b989860006040516100d191906103d2565b60405180910390a160019050919050565b606060008054600181600116156101000203166002900480601f01602080910402602001604051908101604052809291908181526020018280546001816001161561010002031660029004801561017a5780601f1061014f5761010080835404028352916020019161017a565b820191906000526020600020905b81548152906001019060200180831161015d57829003601f168201915b5050505050905090565b828054600181600116156101000203166002900490600052602060002090601f016020900481019282601f106101c557805160ff19168380011785556101f3565b828001600101855582156101f3579182015b828111156101f25782518255916020019190600101906101d7565b5b5090506102009190610204565b5090565b61022691905b8082111561022257600081600090555060010161020a565b5090565b90565b600082601f83011261023a57600080fd5b813561024d61024882610421565b6103f4565b9150808252602083016020830185838301111561026957600080fd5b61027483828461048a565b50505092915050565b60006020828403121561028f57600080fd5b600082013567ffffffffffffffff8111156102a957600080fd5b6102b584828501610229565b91505092915050565b6102c78161047e565b82525050565b60006102d882610462565b6102e2818561046d565b93506102f2818560208601610499565b6102fb816104cc565b840191505092915050565b60008154600181166000811461032357600181146103495761038d565b607f6002830416610334818761046d565b955060ff19831686526020860193505061038d565b60028204610357818761046d565b95506103628561044d565b60005b8281101561038457815481890152600182019150602081019050610365565b80880195505050505b505092915050565b60006020820190506103aa60008301846102be565b92915050565b600060208201905081810360008301526103ca81846102cd565b905092915050565b600060208201905081810360008301526103ec8184610306565b905092915050565b6000604051905081810181811067ffffffffffffffff8211171561041757600080fd5b8060405250919050565b600067ffffffffffffffff82111561043857600080fd5b601f19601f8301169050602081019050919050565b60008190508160005260206000209050919050565b600081519050919050565b600082825260208201905092915050565b60008115159050919050565b82818337600083830152505050565b60005b838110156104b757808201518184015260208101905061049c565b838111156104c6576000848401525b50505050565b6000601f19601f830116905091905056fea2646970667358221220b640b8905db77e6a37c73296ba38d64a707c206494b6651ba50ba7cca60b812e64736f6c63430006090033",
  "immutableReferences": {},
  "source": "pragma solidity ^0.6.0;\npragma experimental ABIEncoderV2;\n\ncontract HelloWorld {\n    string helloWorldText;\n\n    event helloWorldUpdated(string value);\n\n    constructor() public {\n       helloWorldText = \"Hello World\";\n    }\n\n    function updateHelloWorld(string memory _helloWorldText) public returns (bool) {\n        helloWorldText = _helloWorldText;\n\n        emit helloWorldUpdated(helloWorldText);\n        return true;\n    }\n\n    function getHelloWorld() public view returns (string memory) {\n      return helloWorldText;\n    }\n}\n",
  "sourcePath": "/Users/andrewcampbell/git/applied-blockchain/launchpad.js/contracts/contracts/HelloWorld.sol",
  "compiler": {
    "name": "solc",
    "version": "0.6.9+commit.3e3065ac.Darwin.appleclang"
  },
  "schemaVersion": "3.2.0",
  "updatedAt": "2020-06-10T13:52:43.476Z",
  "devdoc": {
    "methods": {}
  },
  "userdoc": {
    "methods": {}
  }
}