{
  "contractName": "Notes",
  "abi": [
    {
      "inputs": [],
      "payable": false,
      "stateMutability": "nonpayable",
      "type": "constructor"
    },
    {
      "constant": false,
      "inputs": [
        {
          "name": "content",
          "type": "string"
        }
      ],
      "name": "addNote",
      "outputs": [],
      "payable": false,
      "stateMutability": "nonpayable",
      "type": "function"
    },
    {
      "constant": true,
      "inputs": [],
      "name": "getNotesCount",
      "outputs": [
        {
          "name": "",
          "type": "uint256"
        }
      ],
      "payable": false,
      "stateMutability": "view",
      "type": "function"
    },
    {
      "constant": true,
      "inputs": [
        {
          "name": "id",
          "type": "uint256"
        }
      ],
      "name": "getNote",
      "outputs": [
        {
          "name": "",
          "type": "string"
        }
      ],
      "payable": false,
      "stateMutability": "view",
      "type": "function"
    }
  ],
  "bytecode": "0x608060405234801561001057600080fd5b50600080819055506104e8806100276000396000f300608060405260043610610057576000357c0100000000000000000000000000000000000000000000000000000000900463ffffffff1680638596982d1461005c578063a4edff4714610087578063a965a941146100b0575b600080fd5b34801561006857600080fd5b506100716100ed565b60405161007e91906103c8565b60405180910390f35b34801561009357600080fd5b506100ae60048036036100a991908101906102f7565b6100f6565b005b3480156100bc57600080fd5b506100d760048036036100d29190810190610338565b610133565b6040516100e491906103a6565b60405180910390f35b60008054905090565b806001600080548152602001908152602001600020908051906020019061011e9291906101e8565b50600080815480929190600101919050555050565b6060600160008381526020019081526020016000208054600181600116156101000203166002900480601f0160208091040260200160405190810160405280929190818152602001828054600181600116156101000203166002900480156101dc5780601f106101b1576101008083540402835291602001916101dc565b820191906000526020600020905b8154815290600101906020018083116101bf57829003601f168201915b50505050509050919050565b828054600181600116156101000203166002900490600052602060002090601f016020900481019282601f1061022957805160ff1916838001178555610257565b82800160010185558215610257579182015b8281111561025657825182559160200191906001019061023b565b5b5090506102649190610268565b5090565b61028a91905b8082111561028657600081600090555060010161026e565b5090565b90565b600082601f83011215156102a057600080fd5b81356102b36102ae82610410565b6103e3565b915080825260208301602083018583830111156102cf57600080fd5b6102da83828461045b565b50505092915050565b60006102ef8235610451565b905092915050565b60006020828403121561030957600080fd5b600082013567ffffffffffffffff81111561032357600080fd5b61032f8482850161028d565b91505092915050565b60006020828403121561034a57600080fd5b6000610358848285016102e3565b91505092915050565b600061036c8261043c565b80845261038081602086016020860161046a565b6103898161049d565b602085010191505092915050565b6103a081610447565b82525050565b600060208201905081810360008301526103c08184610361565b905092915050565b60006020820190506103dd6000830184610397565b92915050565b6000604051905081810181811067ffffffffffffffff8211171561040657600080fd5b8060405250919050565b600067ffffffffffffffff82111561042757600080fd5b601f19601f8301169050602081019050919050565b600081519050919050565b6000819050919050565b6000819050919050565b82818337600083830152505050565b60005b8381101561048857808201518184015260208101905061046d565b83811115610497576000848401525b50505050565b6000601f19601f83011690509190505600a265627a7a7230582019f319691c7473772ff0e4349cdfdfe4a99063c193a54e5bbc9991e4685b7fa36c6578706572696d656e74616cf50037",
  "source": "pragma experimental ABIEncoderV2;\npragma solidity ^0.4.18;\n\ncontract Notes {\n    uint notesCount;\n    mapping(uint => string) notes;\n    \n    constructor () public{\n        notesCount = 0;\n    }\n\n    function addNote(string content) public {\n        notes[notesCount] = content;\n        notesCount++;\n    }\n    \n    function getNotesCount( ) public view returns (uint ) {\n        return notesCount;\n    }\n    \n    function getNote(uint id) public view  returns (string) {\n        return notes[id];\n    }\n    \n}\n",
  "sourcePath": "/Users/vitaliiznak/Documents/projects/base-app-mantle/contracts/contracts/Notes.sol",
  "compiler": {
    "name": "solc",
    "version": "0.4.24+commit.e67f0147.Emscripten.clang"
  },
  "schemaVersion": "2.0.1",
  "updatedAt": "2018-09-14T11:54:08.050Z"
}