{
  "contractName": "Notes",
  "abi": [
    {
      "constant": false,
      "inputs": [
        {
          "name": "content",
          "type": "string"
        }
      ],
      "name": "addNote",
      "outputs": [],
      "payable": false,
      "stateMutability": "nonpayable",
      "type": "function"
    },
    {
      "constant": true,
      "inputs": [],
      "name": "getNote",
      "outputs": [
        {
          "name": "",
          "type": "string[]"
        }
      ],
      "payable": false,
      "stateMutability": "view",
      "type": "function"
    }
  ],
  "bytecode": "0x608060405234801561001057600080fd5b5061060d806100206000396000f30060806040526004361061004c576000357c0100000000000000000000000000000000000000000000000000000000900463ffffffff168063a4edff4714610051578063df3ac4761461007a575b600080fd5b34801561005d57600080fd5b50610078600480360361007391908101906103f0565b6100a5565b005b34801561008657600080fd5b5061008f610138565b60405161009c91906104d5565b60405180910390f35b60408051908101604052806040805190810160405280600181526020017f310000000000000000000000000000000000000000000000000000000000000081525081526020016040805190810160405280600181526020017f32000000000000000000000000000000000000000000000000000000000000008152508152506000906002610134929190610221565b5050565b60606000805480602002602001604051908101604052809291908181526020016000905b82821015610218578382906000526020600020018054600181600116156101000203166002900480601f0160208091040260200160405190810160405280929190818152602001828054600181600116156101000203166002900480156102045780601f106101d957610100808354040283529160200191610204565b820191906000526020600020905b8154815290600101906020018083116101e757829003601f168201915b50505050508152602001906001019061015c565b50505050905090565b828054828255906000526020600020908101928215610270579160200282015b8281111561026f57825182908051906020019061025f929190610281565b5091602001919060010190610241565b5b50905061027d9190610301565b5090565b828054600181600116156101000203166002900490600052602060002090601f016020900481019282601f106102c257805160ff19168380011785556102f0565b828001600101855582156102f0579182015b828111156102ef5782518255916020019190600101906102d4565b5b5090506102fd919061032d565b5090565b61032a91905b80821115610326576000818161031d9190610352565b50600101610307565b5090565b90565b61034f91905b8082111561034b576000816000905550600101610333565b5090565b90565b50805460018160011615610100020316600290046000825580601f106103785750610397565b601f016020900490600052602060002090810190610396919061032d565b5b50565b600082601f83011215156103ad57600080fd5b81356103c06103bb82610524565b6104f7565b915080825260208301602083018583830111156103dc57600080fd5b6103e7838284610580565b50505092915050565b60006020828403121561040257600080fd5b600082013567ffffffffffffffff81111561041c57600080fd5b6104288482850161039a565b91505092915050565b600061043c8261055d565b8084526020840193508360208202850161045585610550565b60005b8481101561048e57838303885261047083835161049f565b925061047b82610573565b9150602088019750600181019050610458565b508196508694505050505092915050565b60006104aa82610568565b8084526104be81602086016020860161058f565b6104c7816105c2565b602085010191505092915050565b600060208201905081810360008301526104ef8184610431565b905092915050565b6000604051905081810181811067ffffffffffffffff8211171561051a57600080fd5b8060405250919050565b600067ffffffffffffffff82111561053b57600080fd5b601f19601f8301169050602081019050919050565b6000602082019050919050565b600081519050919050565b600081519050919050565b6000602082019050919050565b82818337600083830152505050565b60005b838110156105ad578082015181840152602081019050610592565b838111156105bc576000848401525b50505050565b6000601f19601f83011690509190505600a265627a7a72305820623b2c942db8c61accfa6ee61db5c88a54035faefe454a99386c421591ae23286c6578706572696d656e74616cf50037",
  "source": "pragma experimental ABIEncoderV2;\npragma solidity ^0.4.18;\n\ncontract Notes {\n  \n  string[] notes;\n\n  function addNote(string content) public {\n\n    notes = [\"1\", \"2\"];\n  }\n\n  function getNote() constant public returns (string[]) {\n    return notes;\n  }\n\n}\n",
  "sourcePath": "/Users/vitaliiznak/Documents/projects/base-app-mantle/contracts/contracts/Notes.sol",
  "compiler": {
    "name": "solc",
    "version": "0.4.24+commit.e67f0147.Emscripten.clang"
  },
  "schemaVersion": "2.0.1",
  "updatedAt": "2018-09-13T17:23:45.720Z"
}