{
  "contractName": "Notes",
  "abi": [
    {
      "inputs": [],
      "payable": false,
      "stateMutability": "nonpayable",
      "type": "constructor"
    },
    {
      "constant": false,
      "inputs": [
        {
          "name": "tag",
          "type": "string"
        },
        {
          "name": "content",
          "type": "string"
        },
        {
          "name": "author",
          "type": "address"
        },
        {
          "name": "addresses",
          "type": "address[]"
        },
        {
          "name": "encKeys",
          "type": "bytes"
        }
      ],
      "name": "addNote",
      "outputs": [],
      "payable": false,
      "stateMutability": "nonpayable",
      "type": "function"
    },
    {
      "constant": true,
      "inputs": [],
      "name": "getNotesCount",
      "outputs": [
        {
          "name": "",
          "type": "uint256"
        }
      ],
      "payable": false,
      "stateMutability": "view",
      "type": "function"
    },
    {
      "constant": true,
      "inputs": [
        {
          "name": "id",
          "type": "uint256"
        }
      ],
      "name": "getNote",
      "outputs": [
        {
          "name": "",
          "type": "string"
        },
        {
          "name": "",
          "type": "string"
        },
        {
          "name": "",
          "type": "address"
        },
        {
          "name": "",
          "type": "address[]"
        },
        {
          "name": "",
          "type": "bytes"
        }
      ],
      "payable": false,
      "stateMutability": "view",
      "type": "function"
    }
  ],
  "bytecode": "0x608060405234801561001057600080fd5b5060008081905550610d68806100276000396000f300608060405260043610610057576000357c0100000000000000000000000000000000000000000000000000000000900463ffffffff1680637530bf9f1461005c5780638596982d14610085578063a965a941146100b0575b600080fd5b34801561006857600080fd5b50610083600480360361007e9190810190610930565b6100f1565b005b34801561009157600080fd5b5061009a610262565b6040516100a79190610b84565b60405180910390f35b3480156100bc57600080fd5b506100d760048036036100d29190810190610a07565b61026b565b6040516100e8959493929190610b15565b60405180910390f35b6000806100fc61059f565b60bc845181151561010957fe5b04925084519150600060bc855181151561011f57fe5b0614151561012957fe5b828214151561013457fe5b60a0604051908101604052808981526020018881526020018773ffffffffffffffffffffffffffffffffffffffff16815260200186815260200185815250905080600360008054815260200190815260200160002060008201518160000190805190602001906101a59291906105e5565b5060208201518160010190805190602001906101c29291906105e5565b5060408201518160020160006101000a81548173ffffffffffffffffffffffffffffffffffffffff021916908373ffffffffffffffffffffffffffffffffffffffff1602179055506060820151816003019080519060200190610226929190610665565b5060808201518160040190805190602001906102439291906106ef565b5090505060008081548092919060010191905055505050505050505050565b60008054905090565b606080600060608061027b61059f565b6003600088815260200190815260200160002060a06040519081016040529081600082018054600181600116156101000203166002900480601f0160208091040260200160405190810160405280929190818152602001828054600181600116156101000203166002900480156103335780601f1061030857610100808354040283529160200191610333565b820191906000526020600020905b81548152906001019060200180831161031657829003601f168201915b50505050508152602001600182018054600181600116156101000203166002900480601f0160208091040260200160405190810160405280929190818152602001828054600181600116156101000203166002900480156103d55780601f106103aa576101008083540402835291602001916103d5565b820191906000526020600020905b8154815290600101906020018083116103b857829003601f168201915b505050505081526020016002820160009054906101000a900473ffffffffffffffffffffffffffffffffffffffff1673ffffffffffffffffffffffffffffffffffffffff1673ffffffffffffffffffffffffffffffffffffffff168152602001600382018054806020026020016040519081016040528092919081815260200182805480156104b957602002820191906000526020600020905b8160009054906101000a900473ffffffffffffffffffffffffffffffffffffffff1673ffffffffffffffffffffffffffffffffffffffff168152602001906001019080831161046f575b50505050508152602001600482018054600181600116156101000203166002900480601f01602080910402602001604051908101604052809291908181526020018280546001816001161561010002031660029004801561055b5780601f106105305761010080835404028352916020019161055b565b820191906000526020600020905b81548152906001019060200180831161053e57829003601f168201915b505050505081525050905080600001518160200151826040015183606001518460800151849450839350819150809050955095509550955095505091939590929450565b60a0604051908101604052806060815260200160608152602001600073ffffffffffffffffffffffffffffffffffffffff16815260200160608152602001606081525090565b828054600181600116156101000203166002900490600052602060002090601f016020900481019282601f1061062657805160ff1916838001178555610654565b82800160010185558215610654579182015b82811115610653578251825591602001919060010190610638565b5b509050610661919061076f565b5090565b8280548282559060005260206000209081019282156106de579160200282015b828111156106dd5782518260006101000a81548173ffffffffffffffffffffffffffffffffffffffff021916908373ffffffffffffffffffffffffffffffffffffffff16021790555091602001919060010190610685565b5b5090506106eb9190610794565b5090565b828054600181600116156101000203166002900490600052602060002090601f016020900481019282601f1061073057805160ff191683800117855561075e565b8280016001018555821561075e579182015b8281111561075d578251825591602001919060010190610742565b5b50905061076b919061076f565b5090565b61079191905b8082111561078d576000816000905550600101610775565b5090565b90565b6107d491905b808211156107d057600081816101000a81549073ffffffffffffffffffffffffffffffffffffffff02191690555060010161079a565b5090565b90565b60006107e38235610cb1565b905092915050565b600082601f83011215156107fe57600080fd5b813561081161080c82610bcc565b610b9f565b9150818183526020840193506020810190508385602084028201111561083657600080fd5b60005b83811015610866578161084c88826107d7565b845260208401935060208301925050600181019050610839565b5050505092915050565b600082601f830112151561088357600080fd5b813561089661089182610bf4565b610b9f565b915080825260208301602083018583830111156108b257600080fd5b6108bd838284610cdb565b50505092915050565b600082601f83011215156108d957600080fd5b81356108ec6108e782610c20565b610b9f565b9150808252602083016020830185838301111561090857600080fd5b610913838284610cdb565b50505092915050565b60006109288235610cd1565b905092915050565b600080600080600060a0868803121561094857600080fd5b600086013567ffffffffffffffff81111561096257600080fd5b61096e888289016108c6565b955050602086013567ffffffffffffffff81111561098b57600080fd5b610997888289016108c6565b94505060406109a8888289016107d7565b935050606086013567ffffffffffffffff8111156109c557600080fd5b6109d1888289016107eb565b925050608086013567ffffffffffffffff8111156109ee57600080fd5b6109fa88828901610870565b9150509295509295909350565b600060208284031215610a1957600080fd5b6000610a278482850161091c565b91505092915050565b610a3981610c87565b82525050565b6000610a4a82610c59565b808452602084019350610a5c83610c4c565b60005b82811015610a8e57610a72868351610a30565b610a7b82610c7a565b9150602086019550600181019050610a5f565b50849250505092915050565b6000610aa582610c64565b808452610ab9816020860160208601610cea565b610ac281610d1d565b602085010191505092915050565b6000610adb82610c6f565b808452610aef816020860160208601610cea565b610af881610d1d565b602085010191505092915050565b610b0f81610ca7565b82525050565b600060a0820190508181036000830152610b2f8188610ad0565b90508181036020830152610b438187610ad0565b9050610b526040830186610a30565b8181036060830152610b648185610a3f565b90508181036080830152610b788184610a9a565b90509695505050505050565b6000602082019050610b996000830184610b06565b92915050565b6000604051905081810181811067ffffffffffffffff82111715610bc257600080fd5b8060405250919050565b600067ffffffffffffffff821115610be357600080fd5b602082029050602081019050919050565b600067ffffffffffffffff821115610c0b57600080fd5b601f19601f8301169050602081019050919050565b600067ffffffffffffffff821115610c3757600080fd5b601f19601f8301169050602081019050919050565b6000602082019050919050565b600081519050919050565b600081519050919050565b600081519050919050565b6000602082019050919050565b600073ffffffffffffffffffffffffffffffffffffffff82169050919050565b6000819050919050565b600073ffffffffffffffffffffffffffffffffffffffff82169050919050565b6000819050919050565b82818337600083830152505050565b60005b83811015610d08578082015181840152602081019050610ced565b83811115610d17576000848401525b50505050565b6000601f19601f83011690509190505600a265627a7a723058200b6b552ba5753ccc6688c766c4fe9244392b1e8507b1bbdb10968477a9b7db9a6c6578706572696d656e74616cf50037",
  "source": "\npragma solidity ^0.4.18;\npragma experimental ABIEncoderV2;\n\ncontract Notes {\n    uint notesCount;\n    mapping (address => uint) users;\n    struct Note {\n        string tag; // unencrypted text\n        string encryptedText; \n        address author;\n        address[] addresses;\n        bytes encKeys;\n    }\n    mapping (uint => mapping(address => bytes)) encSymKeys;\n    mapping (uint => Note) notes;\n    \n    constructor () public{\n        notesCount = 0;\n    }\n\n    function addNote(string tag, string content, address author, address[] addresses, bytes encKeys ) public {\n        uint keysNum = encKeys.length / 188;\n        uint addressesLength = addresses.length;\n        assert(encKeys.length % 188 == 0);\n        assert(addressesLength == keysNum);\n        Note memory note = Note({ tag: tag, encryptedText: content, author: author, addresses: addresses, encKeys: encKeys });\n        notes[notesCount] = note;\n        notesCount++;\n    }\n    \n    function getNotesCount() public view returns (uint ) {\n        return notesCount;\n    }\n    \n    function getNote(uint id) public view  returns (string, string, address, address[], bytes) {\n        Note memory note = notes[id];\n        return (note.tag, note.encryptedText, note.author, note.addresses, note.encKeys);\n    }    \n}\n",
  "sourcePath": "/Users/alaanrahim/Desktop/projects/base-app-mantle/contracts/contracts/Notes.sol",
  "compiler": {
    "name": "solc",
    "version": "0.4.24+commit.e67f0147.Emscripten.clang"
  },
  "schemaVersion": "2.0.1",
  "updatedAt": "2018-09-21T10:14:39.690Z"
}